:020000040800F2
:1000000000500020E5010008ED010008EF010008A4
:10001000F1010008F3010008F501000800000000EC
:10002000000000000000000000000000F7010008D0
:10003000F901000800000000FB010008FD010008B4
:10004000FF010008FF010008FF010008FF01000890
:10005000FF010008FF010008FF010008FF01000880
:10006000FF010008FF010008FF010008FF01000870
:10007000FF010008FF010008FF010008FF01000860
:10008000FF010008FF010008FF010008FF01000850
:10009000FF010008FF010008FF010008FF01000840
:1000A000FF010008FF010008FF010008FF01000830
:1000B000FF010008FF010008FF010008FF01000820
:1000C000FF010008FF010008FF010008FF01000810
:1000D000FF010008FF010008FF010008FF01000800
:1000E000FF010008FF010008FF010008DFF814D03D
:1000F00000F050FC00F088F800F09CF90048004740
:10010000350E00080050002088B039E0284801F082
:1001100057FA0446C01704EB9060801103902548FD
:1001200001F04EFA0446C01704EB90608011049071
:10013000214801F045FA0446C01704EB9060801195
:1001400005901E4801F03CFA0446C01704EB90608D
:10015000801106901A4801F033FA0446C01704EBE8
:10016000906080110790DDE90601CDE9000115A03E
:1001700003A90EC901F0AEFA194802F065FC00BFF0
:10018000C4E710B500210A4801F020FA012109480E
:1001900001F01CFA0421084801F018FA1021074860
:1001A00001F014FA2121064801F010FA10BD0000F8
:1001B000EC000020F4000020FC00002004010020DE
:1001C0000C010020253464202025346420202534AF
:1001D0006420202534642020253464200D0A00008A
:1001E000CDCCCC3D0648804706480047FEE7FEE7F9
:1001F000FEE7FEE7FEE7FEE7FEE7FEE7FEE7FEE7D7
:100200002D130008ED000008042104A001F0E4FE15
:100210000349086003490860FFF76EFF3A747400F1
:10022000E4010020D001002010B5431A934209D206
:100230008318881803E010F8011D03F8011D521EF1
:10024000F9D210BD40EA01039B0703D009E008C9B9
:10025000121F08C0042AFAD203E011F8013B00F88B
:10026000013B521EF9D210BD421C10F8011B00299F
:10027000FBD1801A704710B5002200E0521C835C4D
:100280008C5CA34201D1002BF8D1D8B2E1B2401A64
:1002900010BD30B505460020034600E05B1C9342CC
:1002A00005D2EC5CC85C201A01D1002CF6D130BD1F
:1002B0000FB400B58DB010A909900B9000914FF0CC
:1002C000FF300A9000200C900548069005480790E2
:1002D0006A4609A80F9900F077F90DB05DF814FB94
:1002E000E5050008030600082DE9FF5F1D464FF0F5
:1002F000FF3BD5E9014691465F464FF00008A969EA
:100300007F1C01988847296A824688470028F6D1D1
:10031000BAF1FF3F0CD024F4C064002E19DD600652
:1003200014D5BAF12B0F09D0BAF12D0F0ED103E07D
:10033000584604B0BDE8F09F44F48064A9697F1C6E
:1003400001988847761E8246002E02DDBAF1300FF2
:1003500003D0B9F1000F26D032E0A969761E44F42B
:1003600000747F1C019888478246002E05DDBAF193
:10037000780F06D0BAF1580F03D0B9F1000F10D0A2
:100380001EE0B9F1000F02D0B9F1100F18D1A96920
:10039000761E24F400747F1C019888478246102042
:1003A00002E0082000E00A20814609E008FB090875
:1003B000A969761E44F400747F1C01988847824620
:1003C000002E05DD4946504600F0EAF80028EDDA37
:1003D000E96901988847A00502D46FF00100A8E7F9
:1003E000E00725D1600613D5600502D5C8F10000ED
:1003F00000E0404629680A1D2A600968220501D5E7
:10040000087015E0220701D5088011E008600FE0B0
:100410002868011D29600068210502D580F8008048
:1004200006E0210702D5A0F8008001E0C0F80080B6
:1004300038467EE770B5054C054D03E02068204442
:100440008047241DAC42F9D170BD0000A82D0008E2
:10045000AC2D000880EA010210B502F00043400014
:1004600022D04A001FD0010E01EB1261C0F35600EA
:10047000C2F3560240F4000042F40002A0FB022046
:1004800000047F39140400D0401C50EA124001D40B
:100490004000491EC2B20C0604EBD010401C4008BC
:1004A000802A02D003E0002010BD20F001000029C6
:1004B00000DA0020184310BD00F0004220F0004098
:1004C000C10DC0F3160040F400007F2901DA0020BE
:1004D0007047962903DCC1F19601C84001E09639C6
:1004E0008840002AF4D04042704738B505468DF860
:1004F00000000C46086800230122694601F0F2FD65
:1005000010B14FF0FF3038BDE068401CE060284675
:1005100038BD30B50B46014600202022012409E0F9
:1005200021FA02F59D4205D303FA02F5491B04FAAC
:1005300002F52844151EA2F10102F1DC30BD2DE9BF
:10054000F05F0546002092469B4688460646814657
:1005500040241BE0284641464746224600F03BFA2D
:1005600053465A46C01A914110D3114618462246A6
:1005700000F022FA2D1A67EB01084F4622460120AF
:10058000002100F019FA17EB00094E41201EA4F1DA
:100590000104DFDC484631462A464346BDE8F09F69
:1005A0003A2800D2303820F02002412A01D3A2F1AB
:1005B0003700884201D34FF0FF3070470268114482
:1005C0001378016018467047D160044951610449AD
:1005D000116200211161114600F024BABD05000826
:1005E0001B0A0008426842B1016811F8013B23B1BF
:1005F000521EC0E90012184670470121C160881ED2
:10060000704742685AB1C368016843B983688B4236
:1006100005D0491E521CC0E90012002070474FF05F
:10062000FF3070472DE9FE4F804681EA0300C00F7E
:100630000C46009021F0004123F00045B8EB020089
:10064000A94105D24046214690461C460B4602462B
:1006500023F00040104347D0270DC7F30A00C3F32F
:100660000A510290401A019040286BDAC3F313003C
:1006700040F4801B0098924620B10023D2EB030A7D
:1006800063EB0B0B01985946C0F14002504600F055
:1006900093F906460D4650465946019A00F0ABF9CB
:1006A00010EB08006141002487EA115284EAE773E5
:1006B0001A4340D0009A62B3019A012A4FEA0752C6
:1006C00015DC001B61EB02014FF0004202EA075209
:1006D000CDE90042001C41F5801132462B4600F066
:1006E00046FB03B0BDE8F08F40462146F9E7001B0A
:1006F00061EB0201001C41F5801300185B412018DA
:10070000A2F5001747EB030140EAD570B6196D4119
:1007100011E06D084FEA360645EAC0754FEA075208
:10072000001B61EB0201001C41F5801149084FEAF2
:1007300030000019514132462B4603B0BDE8F04F5E
:1007400000F006BB0098012240000023D0EB02021B
:1007500063EBE073009821464FEAE074B8EB0000C9
:1007600061EB0401E9E783F000435BE781F00041BE
:1007700058E72DE9FE4F81EA030404F0004421F01C
:10078000004100944FF0000B23F0004350EA0104B5
:100790005ED052EA03045BD0C3F30A54C1F30A5596
:1007A0002C44A4F2F3340194A0FB0254C1F31301CE
:1007B00041F48011C3F3130343F4801301FB02449B
:1007C00000FB034E840A970A44EA815447EA8357A0
:1007D000A4FB076802958D0A05FB07854FEA932C59
:1007E00004FB0C542705029D4FEA065847EA1637CA
:1007F000B5EB08056EEB070C870E920E47EA8117E2
:1008000042EA8312A7FB0201B6EB0B0164EB000482
:100810002B0D43EA0C335E1844EB1C50DA4651466C
:10082000E7FB0201C5F313044FEA0B3343EA145309
:100830004FEA0432019C43EA0603A4F10C0402943B
:10084000009CCDE900B400F092FA03B0BDE8F08F4F
:1008500000200146F9E72DE9F04D81EA030404F098
:10086000004B21F0004514464FF0000A23F00041F0
:1008700050EA050220D054EA01021DD0C5F30A5700
:100880000246C5F31303C1F31300C1F30A5640F443
:10089000801543F48013A7EB0608101BD64608F218
:1008A000FD3873EB050002D308F1010801E092184E
:1008B0005B41B8F1000F03DA00200146BDE8F08D7E
:1008C00000204FF48011064684460EE0171B73EBA0
:1008D000050705D3121B63EB050306434CEA010C25
:1008E00049084FEA300092185B4150EA0107EDD108
:1008F00052EA030012D082EA040083EA05010843A9
:1009000005D0101BAB4106D20122002306E00022D5
:100910004FF0004302E06FF0010253101AEB0600A3
:100920004CEB085110EB0A0041EB0B01BDE8F04D18
:1009300000F00EBAC1F30A52C1F3130140F2FF33C3
:1009400041F480119A4202DA00200146704740F2D9
:1009500033439A42A2F2334202DC524200F03BB8E7
:1009600000F02AB830B5041E71F1000404DB4FF02A
:100970000044404264EB0101141E73F1000405DBE6
:100980001C464FF00043524263EB0403994208BFF8
:10099000904230BD064C074D06E0E06840F0010390
:1009A00094E8070098471034AC42F6D3FFF7A2FB57
:1009B000882D0008A82D0008202A04DB203A00FA20
:1009C00002F1002070479140C2F1200320FA03F3A6
:1009D000194390407047202A04DB203A21FA02F0A4
:1009E0000021704721FA02F3D040C2F12002914069
:1009F000084319467047202A06DBCB17203A41FAF4
:100A000002F043EAE07306E041FA02F3D040C2F19B
:100A100020029140084319467047C0B24FF4F0518C
:100A200000F0F4B92DE9F34F8BB04FF0000801F15D
:100A30000C000C464FF0010B46460DF1080A0190E0
:100A4000626901210198904705002DD0252D2CD0F9
:100A5000216A8847C0B16269012101989047216AE3
:100A600088470028F7D1411E62690198904700E04D
:100A7000761CA1690B988847216A88470028F7D11E
:100A8000E1690B988847DBE7A1690B98884707461F
:100A9000A84201D1761CD3E7E1690B9888477F1CF7
:100AA00002D1B8F1000F6FD046E1002762693D46E0
:100AB0003946019890472A2804D16269012101989A
:100AC00090470125DFF884926269012101989047DF
:100AD000A0F130010A290AD24F45E5DC07EB870176
:100AE00000EB4107303FDFD445F01005ECE7E906A5
:100AF00001D46FF000476C280AD04C2814D0682825
:100B000015D06A280DD074281CD07A281AD01DE080
:100B100062690121019890476C2802D045F00405D4
:100B200014E045F002050DE045F020050AE0626999
:100B3000012101989047682802D045F0080505E09A
:100B400045F400656269012101989047C4E90157A5
:100B500065283DD019DC58287AD00CDC452837D0E0
:100B600004DC252826D0412831D131E046282FD079
:100B700047282CD12CE05B2877D0612828D0632827
:100B80007CD0642823D15AE0D0E06F2848D008DC1C
:100B900066281DD067281BD0692821D06E2816D161
:100BA00027E0702845D0732868D0752847D078286A
:100BB0000DD14DE0A1690B988847054625283FF4E3
:100BC00069AFE1690B9888476D1C3FF46AAFB3E0E9
:100BD00023466A466FF001000B99AFF300809EE058
:100BE00045F040006060A80723464FF0000236D46D
:100BF0003EE0E8077FF447AF2068011D21600068F0
:100C0000290501D506701BE7290701D5068017E7DE
:100C1000A90703D5F117C0E9006111E706600FE7E6
:100C200045F040006060A80723464FF0080216D444
:100C30001EE040F60E0125EA0100606016E045F076
:100C400040006060A80723464FF00A0207D40FE077
:100C500045F040006060A80708D5234610226FF0D9
:100C600001000B99AFF3008059E007E02346102202
:100C70006FF001000B99FFF737FB50E04FF00009D0
:100C80004F464B46632802D05B2806D040E0E8067A
:100C900001D40120A06001273AE062690121019896
:100CA00090475E2805D14FF00109626949460198D5
:100CB0009047216939B900210A46534643F821205B
:100CC000491C0829FADBB0B3216969B9C11700EBE7
:100CD000D16253110AEB830122F01F02821A012014
:100CE0000B68904003430B606269012101989047B3
:100CF0005D28E8D1B9F1000F09D00020514651F824
:100D00002020D24341F82020401C0828F7DB02AB0A
:100D1000224600976FF001000B99AFF30080002886
:100D20000CDA401C08D1BBF1000F05D04FF0FF30AA
:100D30000DB0BDE8F08FFFE74046F9E7E90701D1C4
:100D400008F1010806444FF0000B79E6CCCCCC0C3E
:100D500010B5141E73F1000408DA401C41F10001C3
:100D600092185B411A4301D120F0010010BD2DE91A
:100D7000F04D92469B4611B1B1FA81F202E0B0FA11
:100D800080F220329046FFF717FE04460F4640EAF5
:100D90000A0041EA0B0153465A46084313D0114654
:100DA00053EA010019D0C8F140025046FFF713FE84
:100DB00005460E46504659464246FFF7FDFD08439C
:100DC00005D0012004E020463946BDE8F08D002022
:100DD000054346EAE0762C4337430A986305E40A64
:100DE000A0EB08000022FD0A44EA47540A3002D56D
:100DF00000200146E9E7010510196941DDE90845D0
:100E000000196941BDE8F04DA2E700007F2801D933
:100E1000002208E0064A02EB5002C007127800D117
:100E2000120902F00F0201209040084070470000B4
:100E3000482D000810B501F08AFA01F087FABDE8E4
:100E40001040FFF761B90029816814BF41F001012A
:100E500021F001018160704701460020896811F08E
:100E6000040F18BF01207047C06C80B27047024663
:100E7000002012680A4218BF012070470146002076
:100E8000896811F0080F18BF01207047426891F877
:100E900004C022F4807222F470220B6842EA0C2211
:100EA0001A43426082680B4B1A40D1E902C343EAFD
:100EB0000C0391F805C042EA4C021A438260C26AF0
:100EC000097C22F47002491EC9B242EA0151C16292
:100ED00070470000FDF7F1FF30B4072409290DD950
:100EE000C568A1F10A0C0CEB4C0C04FA0CF425EAD1
:100EF000040403FA0CF32343C3600AE0056901EB21
:100F0000410C04FA0CF425EA040403FA0CF323431D
:100F100003611F23072A0CD2D0F834C0521E02EB03
:100F2000820293402CEA030391401943416330BC91
:100F300070470D2A0CD2D0F830C0D21F02EB8202CB
:100F400093402CEA030391401943016330BC70477E
:100F5000D0F82CC00D3A02EB820293402CEA030336
:100F600091401943C16230BC7047816841F008016B
:100F7000816070470029816814BF41F4A00121F409
:100F8000A00181607047816841F004018160704771
:100F90002DE9F001CB78002203F00F0C13F0100FB5
:100FA0001CBF8B7843EA0C0C0B780F260125002B15
:100FB00018BF04681AD000BF0F8805FA02F31F405B
:100FC0009F420FD1970006FA07F824EA08040CFAAA
:100FD00007F73C43CF78282F08BF436102D0482F42
:100FE00008BF0361521C082AE6D304600A88FF2A5E
:100FF00087BF44680022BDE8F001704702F1080392
:101000000F8805FA03F31F409F420FD1970006FA9D
:1010100007F824EA08040CFA07F73C43CF78282F96
:1010200008BF4361CF78482F08BF0361521C082ACC
:10103000E4D34460BDE8F0017047000070B4194A81
:1010400010F0004F14BFD3695368C0F303444FF44A
:10105000401C3CEA00054FEA505C4FEA0C1C86B28B
:1010600006FA0CFC16D010F4801F08BF23EA0C030C
:1010700003D0032505FA04F4A34343F07063002969
:1010800018BF4CEA030310F0004F14BFD361536044
:1010900070BC7047546823F0706324F0706454602F
:1010A000EDE70000000001402DE9F041184D0E462B
:1010B00007462C682868B0F1006F23D12146C1F1A2
:1010C0000050AC068210002AC4BF3B22B2EBA00F36
:1010D00004DCEC222046FFF7A7F810E00868206047
:1010E0005FF0010004EB800351F8202044F8202039
:1010F00001EB8002801C52685A603B28F2D34FF00B
:101100000050286004EB87000664BDE8F081000011
:1011100008ED00E003494A6822F440421043486069
:101120007047000000100240044A0029D16914BF32
:10113000084321EA0000D06170470000001002401F
:10114000044A0029916914BF084321EA0000906114
:101150007047000000100240254910B44A6812F0A0
:101160000C03244A18BF042B01D0082B01D00260C5
:1011700015E04A684B6802F470124FF0020C13F449
:10118000803F0CEB924203D04B6813F4003F03D036
:10119000194B5A43026002E0164B5A4302604A68F8
:1011A0000F2303EA1212154B9A5CD0F800C02CFAF8
:1011B00002F24260D1F804C0072404EA1C2C13F8A0
:1011C0000CC022FA0CFCC0F808C0D1F804C004EA34
:1011D000DC2C13F80C30DA40C2604968032303EAC0
:1011E0009131074B595CB2FBF1F1016110BC7047C2
:1011F0000010024000127A0000093D001801002092
:101200001401002082B000210091019129490A684F
:1012100022F480320A600028086814BF40F480205D
:1012200020F480200860086840F480300860086876
:1012300000F4003001900098401C0090019818B90B
:101240000098B0F5A06FF2D1086810F4003004BF28
:1012500002B070471848026842F01002026002684B
:1012600022F007020260026842F00202026048684F
:1012700020F47C104860486840F4823040F4E0106C
:101280004860086840F080700860086810F0007FCF
:10129000FBD0486820F003004860486840F0020036
:1012A0004860486800F00C000828FAD1012002B01C
:1012B00070470000001002400020024016494868B4
:1012C000164A10F00C03164818BF042B01D0082B47
:1012D00001D0026015E04A684B6802F470124FF0CA
:1012E000020C13F4803F0CEB924203D04B6813F4D2
:1012F000003F03D00B4B5A43026002E0074B5A43B6
:1013000002604968084AC1F30311515C026822FA7D
:1013100001F10160704700000010024000127A00E5
:101320002C01002000093D003001002008B52C4BA5
:10133000186840F00100186058682A490840586051
:10134000186820F4102020F080701860186820F4CD
:1013500080201860586820F4FE0058604FF41F0089
:1013600098602149D80308600120FFF74BFF00284F
:1013700018BF08BD0020FFF745FF002818BF08BDB3
:10138000002000901948016841F0100101600168D7
:1013900021F007010160016841F002010160586815
:1013A00020F47C105860586840F4806040F460106D
:1013B0005860186840F080701860186810F0007F5E
:1013C000FBD0586820F003005860586840F00200D5
:1013D0005860586800F00C000828FAD108BD0000D9
:1013E000001002400000FFF808ED00E0002002407D
:1013F000C943018270470029018814BF41F00101EF
:1014000021F0010101807047038A002280890B428C
:1014100000EA01001CBF0028012210467047002A84
:10142000828914BF114322EA0101818170478186BC
:101430007047000010B40288234BDFF890C0984238
:1014400018BF604511D0B0F1804F1CBFA0F180449F
:10145000B4F5806409D0A0F18044B4F500641CBFE9
:10146000A0F18044B4F5406403D14C8822F07002AE
:101470002243A0F18044B4F580541CBFA0F1804405
:10148000B4F5A05403D0CC8822F4407222430280E9
:101490008A8882850A880285984218BF60450DD0E7
:1014A000A0F18042B2F5A0321FBFA0F18042B2F598
:1014B000A232A0F18042B2F5A43201D1097A0186AC
:1014C0000121818210BC7047002C01400034014092
:1014D0004FF6FF71818000210180C180418001723F
:1014E00070470029818914BF41F4005121F4005153
:1014F000818170470246002012880A4218BF0120ED
:101500007047000030B50446008A85B00D464CF6A1
:10151000FF710840E98808432082A0894EF6F31144
:101520000840A9882A8911436A8910430843A08189
:10153000A08A4FF6FF410840A9890843A082684667
:10154000FFF70AFEA4F18040B0F59C300CBF039871
:101550000298A18911F4004F00EBC00101EB0010CB
:10156000296814BF49008900B0FBF1F0114A6FF0FF
:10157000180CA2FB0031490909010B0903FB0CF30C
:1015800000EB8300A38913F4004F4FF0320314BF24
:1015900003EBC00003EB0010A2FB00204FEA501049
:1015A00014BF00F0070000F00F000843208105B0D1
:1015B00030BD00001F85EB51C1F3080181807047E9
:1015C00010B50446204600F01BFE10BD70B5044661
:1015D0000D462946204600F0B5FD204670BD007B33
:1015E0007047000070B506460B480D46046884B18C
:1015F000A06858B12A463146FEF74BFE30B9A068C4
:10160000FEF732FEA84201D1204670BD6468002C6E
:10161000EED1002070BD00005C01002010B5044632
:10162000406828B1FFF7DBFF012804BF606810BDE8
:10163000002010BD10B50446406810B1FFF7CFFF81
:1016400008B1002010BD6068002818BF001F10BD41
:101650004068002818BF0120704710B54068002876
:1016600008BF10BDFFF7BBFF00280CBF0120002002
:1016700010BD0068704710B504460020206060600F
:1016800008782F280DD1487858B14B1C00212360D1
:10169000226810782F2806D038B1491C501C2060D1
:1016A000F6E7204610BD501C20601846FFF79AFF51
:1016B0006060204610BD00000FB4024610B504A9BA
:1016C000034B039800F0F0F810BC5DF814FB000029
:1016D000EB0400080FB4054B10B503A9044A0298A7
:1016E00000F0E2F810BC5DF814FB0000EB04000809
:1016F000D001002030B414460D460246214628464B
:1017000030BC014B00F0D0B8EB04000802E008C880
:10171000121F08C1002AFAD170477047002001E06B
:1017200001C1121F002AFBD1704710B5C1680068C3
:1017300000F0C4FC002802DA4FF0FF3010BD00209A
:1017400010BD00002DE9FF5FDDE90220010DDDF88D
:1017500038B0024318D044F61050A1F2FF31414393
:101760000D140F98012820D0A5EB0B00401C5FEA58
:10177000000A4FF00004474EDFF81C91A046504687
:1017800016D5CAF1000728E00F98012443A20128CA
:1017900008D0002100980F9BC0E90021C0E9024356
:1017A000BDE8FF9F6FEA0B01F4E7CBF10000DEE735
:1017B000074612E0F80707D022463346404649461E
:1017C000FEF7D7FF80468946224633461046194623
:1017D000FEF7CFFF04460E467F10002FEAD1DDE969
:1017E0000201BAF1000F42464B4602DAFEF7C1FF92
:1017F00001E0FFF730F804460E460022284BFFF7C1
:10180000B1F803D84FF0FF30014607E00022254B26
:1018100020463146FEF706FFFFF78CF8102409E05A
:10182000002C0ADB0A220023FEF789FE019B3032DE
:101830001A55641E50EA0102F2D1641C019AC4F1E7
:10184000110314440F9A012A03D0012208430DD139
:101850000AE0084304D000204FF0110B0F9080E7FE
:10186000A3EB0B056D1E0DE05B4504DD4FF00002A0
:1018700005F1010504E003DA4FF00002A5F10105CE
:10188000002AECD000980F99C0E90231C0E9004568
:1018900086E70000000024400000F03F3000000018
:1018A0000000F0430000E03F2DE9FF4F95B09B465C
:1018B0008946064600250FE2252877D100242746D1
:1018C000F84A0121059400E0044316F8013F203B4B
:1018D00001FA03F01042F7D130782A2811D06FF0C6
:1018E0002F033078A0F13002092A16D8059A44F067
:1018F000020402EB820203EB42021044761C0590C4
:10190000EFE759F8042B0592002A03DA504244F419
:101910000054059044F00204761C30782E2816D12D
:1019200016F8010F44F004042A280DD06FF02F029E
:101930003078A0F13003092B09D807EB870302EBBD
:101940004303C718761CF3E759F8047B761C3078FC
:101950006C280FD006DC4C2817D068280DD06A28D8
:1019600014D104E0742810D07A280FD10DE044F48B
:1019700000140AE044F4801401E044F44014727846
:10198000824202D104F58014761C761C30786628D9
:101990000BD013DC582877D009DC002875D04528F7
:1019A000F6D04628F4D047281AD19DE118E06328E4
:1019B00035D0642879D0652812D195E1702873D08C
:1019C00008DC6728F1D069286FD06E280DD06F2809
:1019D00006D1B5E073282CD0752875D0782874D03E
:1019E0005A46179990476D1C75E1C4F302500228BE
:1019F00009D003280DD0D9F8001004280DD00D60AF
:101A000009F1040967E1D9F80010EA17C1E90052A9
:101A1000F6E7D9F800100D80F2E70D70F0E719F83D
:101A2000041B8DF8001000208DF80100EA4601200B
:101A300003E059F804AB4FF0FF3061074FF00001AD
:101A400002D40DE008F101018846B9420FDA804561
:101A5000F8DB1AF808100029F4D108E008F10101B8
:101A600088468142FADB1AF808100029F6D1059859
:101A70005B46A0EB080721463846179A00F094FA17
:101A8000284400EB080507E04DE029E10DE01AF8D5
:101A9000010B5A4617999047B8F10108F7D25B46F7
:101AA00021463846179A13E142E00A220092C4F315
:101AB00002524FF0000A022A08D059F804CB032A38
:101AC0004FEAEC710AD00DE029E02AE009F10701A4
:101AD00021F00702F2E802C1914609E00FFA8CFCFE
:101AE0004FEAEC71042A03D14FFA8CFC4FEAEC71F7
:101AF000002907DA0A460021DCF1000C61EB020143
:101B00002D2202E0220504D52B228DF8042001228B
:101B100003E0E20701D02022F7E7904659E00A21CE
:101B200002E010220DE010214FF0000A00910BE0BE
:101B300010224FF0000A44F004040827009203E04A
:101B400008224FF0000A0092C4F30252022A05D084
:101B500059F804CB0021032A08D009E009F1070154
:101B600021F00702F2E802C1914605E01FFA8CFC61
:101B7000042A01D10CF0FF0C4FF00008220728D5F1
:101B8000702806D0009B83F0100353EA0A0305D0A7
:101B90000EE040228DF80420012208E05CEA0102F8
:101BA00006D030228DF804208DF8050002229046E0
:101BB000009B83F0080353EA0A030AD15CEA01029E
:101BC00001D1620705D530228DF804204FF00108BD
:101BD0007F1E582804D034A003900EA802900DE078
:101BE00036A0F9E753466046009AFEF7A8FC844603
:101BF0000398825C0298401E029002705CEA010029
:101C0000F0D1029806A9081A00F1200A600702D54F
:101C100024F4803400E00127574502DDA7EB0A00D9
:101C200000E0002000EB0A01009005984144401AB2
:101C30000590E00306D45B462146179A059800F00C
:101C4000B3F90544002706E001A85A46C05D17997C
:101C500090476D1C7F1C4745F6DBE0030CD55B46C7
:101C60002146179A059800F09FF9054404E03020BA
:101C70005A46179990476D1C0099481E00900029FC
:101C8000F5DC08E0029802995A460078491C029156
:101C9000179990476D1CBAF10001AAF1010AF1DC15
:101CA00065E1000009280100303132333435363720
:101CB0003839616263646566000000003031323398
:101CC0003435363738394142434445460000000038
:101CD00000F058F90544761C307800287FF4ECAD0C
:101CE00019B02846BDE8F08F620700D4062709F135
:101CF000070222F0070CFCE80223E14603F000484B
:101D00005FEA080C02D00FF2702C0DE05FEA045C71
:101D100002D50FF2682C07E05FEAC47C02D00FF214
:101D2000602C01E0AFF2700C4FF0FF3823F000435D
:101D3000CDF850C065280CD006DC452809D04628CF
:101D40001DD047283DD13DE0662818D067287ED1B8
:101D500038E00021112F01DB112000E0781CCDE9D3
:101D6000000106A90EA8FFF7EDFCDDE90F010E9AB0
:101D700003910021009207F1010A04914DE04FF018
:101D800000400097CDE9011006A90EA8FFF7DAFC84
:101D9000DDE90F0203920E9B11990022DDF80CA0E1
:101DA0000093049211B9791C00EB010AB7EB0A0009
:101DB00004D4C0F1FF3007F1010A0490AAEB070038
:101DC000019044E0012F00DA01270021112F01DDED
:101DD000112000E03846CDE9000106A90EA8FFF762
:101DE000B1FCDDE90F010E9A0391002104910092EC
:101DF000BA4621070CD40399514500DA8A46BAF154
:101E0000010F05DD009AAAF10101515C302908D0CB
:101E1000B84202DA10F1040F06DA0121CDE901100F
:101E200015E0AAF10101E9E7002805DC0499014465
:101E30000491AAEB000102E0411C514500DD8A46F5
:101E40000499401A401C01904FF000400290200776
:101E500004D40198504501DBCDF8048000208DF8B2
:101E60004F0002980DF14F07B0F1004F25D02B2005
:101E70000E9002984FF0020800280CDA40420290BF
:101E80002D200E9007E00A210298FEF742FB303128
:101E9000029007F8011DB8F10001A8F10108F2DC79
:101EA00002980028EFD1791E0E980870307800F063
:101EB000200040F0450007F8020D12A8C01B00F1F9
:101EC00007081498007800B1012000EB0A0101987E
:101ED00001EBE07105984144401A401E0590E00373
:101EE00006D45B462146179A059800F05DF8054434
:101EF0001498007818B15A46179990476D1CE00362
:101F000024D55B462146179A059800F04DF8054404
:101F10001CE00498002807DBDDE90301884203DDAB
:101F20000098405C179901E0179930205A46904775
:101F3000049805F10105401C04900198401E019091
:101F400004D12E205A46179990476D1CBAF1000112
:101F5000AAF1010ADDDC05E017F8010B5A461799D2
:101F600090476D1CB8F10001A8F10108F4DC5B4654
:101F70002146179A0598ABE62D0000002B000000C3
:101F8000200000002DE9F041044600251E461746BA
:101F9000880404D405E039462020B0476D1C641E37
:101FA000F9D52846BDE8F0812DE9F0410446002529
:101FB0001E469046C80301D5302700E0202788043C
:101FC00004D505E041463846B0476D1C641EF9D57E
:101FD0002846BDE8F0810000F0B50E4683B0044607
:101FE00032A1FEF748F900281CBF0025304F06D06B
:101FF00057F8250048B16D1C102DF9D347E02D4945
:102000000868421C0A6003B0F0BD102D3FD2207852
:102010003A2811D021466846FFF72DFB6846FFF7A6
:1020200017FB002833D06846FFF717FB00286846E7
:1020300009D0FFF7FFFA23E06A461FA12046FEF70A
:1020400037F900981CE0FFF7E9FA00B316F0020F29
:1020500018BF02241FD000BF16F00C0F18BF44F4A5
:10206000007416F0040F18BF44F4806406466846F6
:10207000FFF7FFFA014630682246836830469847EA
:1020800000281FBF47F82500E81C03B0F0BD4FF043
:10209000FF3003B0F0BD16F0040F18BF0124DBD1F0
:1020A00016F0080F14BF09240024D5E73A74740011
:1020B00068010020280100203A2570000328BCBFD9
:1020C00000207047064A02EB800050F80C0C0028F4
:1020D00004BF4FF0FF3070470268136900221847B1
:1020E0006801002070B514460E46032813DA124822
:1020F000006820B903220221104800F09DFA002553
:10210000002C06D9715D0D4800F044FB6D1CAC42FB
:10211000F8D820460DE00A4901EB800050F80C0C7D
:10212000002804BF4FF0FF3070BD01680B683146D6
:102130009847201A70BD000044010020B40100201F
:102140006801002030B50D46044685B02349284675
:1021500000F018FA2060401C04D14222204921A03E
:1021600000F0C4F81D49284600F03AFA23482571CA
:10217000016800291CBF05B030BD01250560246839
:10218000E803FEF7C7FF01214802FEF7D9FF00214F
:102190004FF460208DF80410CDE9020100918DF814
:1021A00005108DF8105069462046FEF76FFE01219C
:1021B0002046FEF748FE2046FEF7D7FE2046FEF7F3
:1021C0005DFE0028FAD12046FEF7DDFE2046FEF730
:1021D00043FE0028FAD105B030BD0000882A00086F
:1021E000542B00086F626A2D3E61646320213D20FC
:1021F000284144434E616D65294E43004001002053
:1022000010B5046890F904000021102808BF0821C7
:1022100035D007DC082823D2DFE800F03124262857
:102220002A2C2E30222808BF0C2128D00CDC1128A3
:1022300008BF092123D0202808BF0A211FD0212848
:1022400008BF0B211BD00BE0232808BF0D2116D09F
:10225000242808BF0E2112D0252808BF0F210ED038
:1022600000201EE001210AE0022108E0032106E02F
:10227000042104E0052102E0062100E007210123FA
:102280001A462046FEF728FE01212046FEF772FE80
:1022900002212046FEF7EBFD0028F9D02046FEF78C
:1022A000E3FD6FF4702101EA0011C0F3032008433D
:1022B00010BD00000FB4044810B503AA0299FFF73F
:1022C00019FA012000F002F8E40100200446054854
:1022D000FFF72BFA0448FFF728FA002C18BF00F08C
:1022E0002DF8FEE7D0010020E401002008B500929F
:1022F0000B46024603A11048FFF7DEF9BDE808408F
:1023000000F01CB86D62656420617373657274615E
:1023100074696F6E206661696C65643A2025732C60
:102320002066696C653A2025732C206C696E6520E7
:102330002564200A00000000E401002072B6962007
:1023400000F094FB962000F091FBF8E77047FEF751
:10235000B5BF00002DE9F84305460C46401C04D1EA
:1023600053222E492EA0FFF7C1FF2712E6B2C5F374
:102370000310002405F00F08002833D0012835D0C1
:10238000022839D003283BD02A48FFF793FF0121C8
:102390000846FEF7D5FE701E092805D22648012101
:1023A00050F82600FEF74AFE012000FA08F0ADF8CA
:1023B00000008DF8037003208DF802006946204666
:1023C000FEF7E6FD1D480D2D22D00E2D08BF012180
:1023D0001AD00F2D19BF132D142D0121184813D019
:1023E000BDE8F8830121174C042002E0164C0121BE
:1023F0000820FEF7A5FECAE70121144C1020F8E7DB
:102400000121134C2020F4E7FEF718FEBDE8F88305
:102410000121FEF713FEBDE8F8830000EC2C000854
:1024200070696E20213D202850696E4E616D6529CE
:102430004E430000D02C0008A82C000800043000F7
:102440000002300000080140000C01400010014073
:1024500000140140F8B504460E46401C04D17E220B
:102460002F4930A0FFF742FFC4F3031004F00F051B
:102470000024C0B101281AD002281ED0032820D081
:102480002D48FFF717FF2046002E08BFF8BD032197
:10249000012E08BF482218D0022E08BF282214D0CF
:1024A000032E1ED013E00121244C042002E0244C12
:1024B00001210820FEF744FEE5E70121214C102010
:1024C000F8E70121204C2020F4E78DF803200122B9
:1024D000AA40ADF800208DF802106946FEF758FDBD
:1024E000F8BD0422082D0CD2D0F800C0AB009940F2
:1024F0001CEA010F08BFF8BD01689A401143016052
:10250000F8BDD0F804C06B07DB0E99401CEA010F40
:1025100008BFF8BD41689A4011434160F8BD000012
:10252000EC2C000870696E20213D202850696E4E09
:10253000616D65294E430000D02C00080008014061
:10254000000C01400010014000140140884208BF07
:102550007047421C04BF0846704710B5491C08BFAD
:1025600010BD03A0FFF7A6FE4FF0FF3010BD000026
:1025700070696E6D6170206D69732D6D6174636833
:102580000000000010B5421C04BF4FF0FF3010BD2A
:1025900091F90020521C0BD091F90020824203D106
:1025A0004C68601C09D105E011F90C2F521CF3D1C5
:1025B0004FF0FF3402A0FFF77DFE204610BD000063
:1025C00070696E6D6170206E6F7420666F756E64D9
:1025D00020666F72207065726970686572616C0048
:1025E00010B50446401C08BF10BD91F90000401C06
:1025F00012D000BF91F90000A04209D1896820469D
:10260000FFF7A8FE2046BDE810400021FFF722BFDB
:1026100011F90C0F401CEDD1BDE8104001A0FFF7EF
:1026200049BE0000636F756C64206E6F7420706922
:102630006E6F7574000000002DE9F0430F460446EC
:1026400085B0164646493846FFF79CFF0546454982
:102650003046FFF797FF01462846FFF777FF2060D7
:10266000401C04D16422404940A0FFF73FFE20688F
:102670000025A0F18041B1F59C3104D101218803EE
:10268000FEF75EFD6560DFF8008120684FF001090C
:10269000404505D101214804FEF746FDC4F80490E9
:1026A0002068A0F18041B1F5904105D10121880455
:1026B000FEF73AFD0220606029493846FFF790FF97
:1026C00028493046FFF78CFF4FF41650C4E9020545
:1026D0002561656127766676266800213046FEF71B
:1026E00000FFA0680090A089ADF80400208AADF832
:1026F0000600A08AADF80800ADF80C5094F9190056
:10270000401C04BF0820ADF80A0007D094F9180057
:10271000401C0CBF04200C20ADF80A00694630466E
:10272000FEF7F0FE01213046FEF7DBFE2068404553
:102730001CBF05B0BDE8F0831448C0F800901448F1
:1027400094E80E1000F10C05A5E80E10D4E904126F
:10275000A3694362C0E9071205B0BDE8F083000039
:10276000B82B0008002C0008482C00086F626A2D66
:102770003E7561727420213D2028554152544E61AE
:102780006D65294E430000000044004044010020D4
:10279000A801002070B506680D4604468021206817
:1027A000FEF7A8FE0028F9D0A9B23046BDE8704077
:1027B000FEF702BF70B51F4806881F4D012128464D
:1027C000FEF722FE1D4C012806D101212846FEF706
:1027D0000FFEA068401CA06002212846FEF714FEF0
:1027E000012818BF70BD02212846FEF701FE20888F
:1027F00058B121882846FEF71AFE012202212846F8
:10280000FEF70DFE0020208070BDE06870B14FF62D
:10281000FF712846FEF70BFE012202212846FEF733
:10282000FEFD2680E068401EE06070BDBDE870409F
:1028300000F014B824080040000800404C010020BB
:1028400002210148FEF7D4BD000800400022022109
:102850000148FEF7E4BD00000008004010B5FFF796
:10286000EFFF0E4C206870B100F01AF821680A687A
:10287000101A00280BDCC86820606268002A1CBFA0
:1028800088689047EEE7BDE81040FFF7DFBF496872
:10289000BDE81040104600F055B80000600100206F
:1028A00030B5214C83B0606800282ED1012001464C
:1028B00060600420FEF738FC6846FEF709FE4FF61C
:1028C000FF70ADF80400194819491A4D0068B0FBB3
:1028D000F1F0401EADF800000020ADF80600ADF8A4
:1028E000020069462846FEF7A5FD0122114628464A
:1028F000FEF795FD10491E20FEF7D6FB0F49E804B0
:10290000086001212846FEF776FDA0680C4A118870
:1029100001EB0041A068138803EB0040884298BF98
:102920000146F7D903B030BD4C0100202C01002036
:1029300040420F0000080040B527000800E100E019
:10294000240800402DE9F041384C8046002660689C
:10295000374D84B04FF6FF7700282AD10120014679
:1029600060600420FEF7E0FB6846FEF7B1FD3148E9
:10297000ADF8047030490068ADF80660B0FBF1F0C6
:10298000401EADF80000ADF8026069462846FEF72B
:1029900051FD012211462846FEF741FD27491E2020
:1029A000FEF782FB2649E804086001212846FEF76D
:1029B00022FDA068234B198801EB0042A06819880A
:1029C00001EB0041914298BF0A46F7D91888A8EB5D
:1029D0000101002904DC04B0BDE8F041FFF73EBF6F
:1029E0000A14E260218021883F1A8F420ED3218889
:1029F000084481B22846FEF71AFD0122022128462A
:102A0000FEF70DFD268004B0BDE8F0814FF6FF71A2
:102A10002846FEF70CFD012202212846FEF7FFFCA6
:102A20002088C01B208004B0BDE8F0814C0100204C
:102A3000000800402C01002040420F00B52700088C
:102A400000E100E02408004070B50749FDF702FDF1
:102A5000FDF732FD0446FFF723FF0546FFF720FF91
:102A6000401BA042FAD370BD0024744970B54FF4E6
:102A70007A7100FB01F5FFF713FF0446FFF710FF23
:102A8000001BA842FAD370BD0000000000240140E2
:102A900000000000010000000024014000000000D0
:102AA00002000000002401400000000003000000BC
:102AB0000024014000000000040000000024014048
:102AC000000000000500000000240140000000009C
:102AD0000600000000240140000000000700000084
:102AE000002401400000000010000000002401400C
:102AF0000000000011000000002401400000000060
:102B0000200000000024014000000000210000001F
:102B100000240140000000002200000000240140C9
:102B2000000000002300000000240140000000001D
:102B300024000000002401400000000025000000E7
:102B40000024014000000000FF000000FFFFFFFF25
:102B500000000000433A5C776F726B5C6D626564E5
:102B60005C6769746875622D6E65775C6C6962720A
:102B700061726965735C6D6265645C7461726765DE
:102B800074735C68616C5C5441524745545F5354A4
:102B90004D5C5441524745545F4E55434C454F5F41
:102BA0004631303352425C616E616C6F67696E5FB3
:102BB0006170692E630000000200000000440040C4
:102BC0000018000009000000003801400018000053
:102BD0001600000000380140031800001A00000031
:102BE00000480040001800002A0000000048004093
:102BF00005180000FF000000FFFFFFFF00000000BD
:102C00000300000000440040000400000A0000002F
:102C100000380140000400001700000000380140A7
:102C2000030400001B0000000048004000040000F6
:102C30002B0000000048004005040000FF000000D9
:102C4000FFFFFFFF00000000433A5C776F726B5C90
:102C50006D6265645C6769746875622D6E65775C2A
:102C60006C69627261726965735C6D6265645C74E3
:102C70006172676574735C68616C5C54415247456E
:102C8000545F53544D5C5441524745545F4E554335
:102C90004C454F5F4631303352425C736572696117
:102CA0006C5F6170692E630000000000010000008D
:102CB00002000000040000000800000010001400E2
:102CC0004000160000081A0000031800000C1A004B
:102CD000506F7274206E756D626572206973206E1C
:102CE0006F7420636F72726563742E00433A5C7771
:102CF0006F726B5C6D6265645C6769746875622D88
:102D00006E65775C6C69627261726965735C6D6235
:102D100065645C746172676574735C68616C5C5453
:102D200041524745545F53544D5C544152474554BA
:102D30005F4E55434C454F5F4631303352425C70D5
:102D4000696E6D61702E6300DDDDDDDDDCBBBBDD3A
:102D5000DDDDDDDDDDDDDDDD98888888888888883B
:102D6000777777777788888885555556666666665B
:102D7000666666666668888883333332222222223A
:102D8000222222222228888DAC2D0008EC0000206F
:102D90007C0000000C170008282E000868010020A5
:102DA000900000001C170008DBD3FFFF00000000AC
:102DB0000000000000000000000000000000000013
:102DC0000000000000000000000000000000000003
:102DD00000000000020406080000000001020304D5
:102DE0000102030406070809000000000090D00358
:102DF00000000000000000000102030406070809AB
:102E000000000000000000000000000000000000C2
:102E100000000000000000000000000000000000B2
:082E20000000000000000000AA
:04000005080000ED02
:00000001FF
